:020000040000FA
:0400000000001028C4
:100020008312031388018901831606309F008B1306
:100030000F308600811389018801831267220830FE
:10004000DF00C4010530C0000130D0000130C20023
:100050000130C3008030E100053088008828061296
:10006000861606178617061C5C28861C5E28061D49
:100070006028861D6E2806168612061C6228861CBD
:100080006428061D6628861D702886160613061C21
:100090006828861C6A28061D6C28861D722806178B
:1000A0008613061C7628861C5A28061D7828861D6D
:1000B00074282F2800307A280130812802307A28CD
:1000C0000330B2280430B2280530B2280630B228F6
:1000D0000730B2280830B2280930B2280A30B228D6
:1000E0000B30B2280C30B2280D30B2280E30B228B6
:1000F0000F30B2283030A0009722B9224410C40D2E
:10010000A4283130A0009722B9224414C40DA42899
:100110004130A0009722B922A428C20B9728423070
:10012000A0009722B9220530C000DC20A428C30B10
:10013000FE28BF30E100AC204330A0009722B92256
:100140000530C000E220A428E10A6108A000852251
:10015000B922C00B2F288D28E10A6108A000852252
:10016000B9220800C530A0008522B9224530A00080
:100170009722B922C630A0008522B9225230A000B1
:100180009722B922C730A0008522B9225230A000A0
:100190009722B922C830A0008522B9224F30A00092
:1001A0009722B922C930A0008522B9225230A0007E
:1001B0009722B922D3221028C501C40C4408C500D7
:1001C000C4010800C601C40CC4134408C600C4011D
:1001D0000800C701C40CC4134408C700C4010800C8
:1001E000471D0621C71D442110220800471904217C
:1001F000C71D6B21471CD729902908006722E920D9
:10020000C71CF020F620E02AE02A08008530E10033
:10021000AC204130A0009722B922AC205E30A00073
:100220009722B922AC204230A0009722B922AC20FC
:100230003D30A0009722B922AC204508C800E0005C
:100240004608C900C9030130CA00CB014A0BCB0ADA
:100250004808C6006008C5000730A100E001023070
:10026000CA0003016321C90B2629C330E1004B1CDE
:100270003A29502AC90A491C3E2941290130E00087
:10028000502A4808E000502A8530E100AC20413077
:10029000A0009722B922AC202A30A0009722B922D0
:1002A000AC204230A0009722B922AC203D30A00003
:1002B0009722B922AC200730A100E001030163219D
:1002C000C330E100502A46184507E000C50DC60CB2
:1002D000A10B632908008530E100AC204130A0006B
:1002E0009722B922AC202D30A0009722B922AC2051
:1002F0004230A0009722B922AC203D30A0009722C6
:10030000B922AC200030E00046084502E000C330CE
:10031000E100E01F502A45084602E000E017502A9D
:100320008230E100AC205030A0009722B922AC20EE
:100330004130A0009722B922AC204930A00097227A
:10034000B922AC20C930A0009722B922AC2053308A
:10035000A0009722B922AC20AC204930A0009722FF
:10036000B922AC204E30A0009722B922AC20AC209C
:100370004230A0009722B922AC203A30A000972248
:10038000B922AC200530A1000130A2000030E0000D
:10039000C330E100A10BCD29502AA20BC60C461C8C
:1003A000CA29C60CA103461CCA29E00ACA29823000
:1003B000E100AC204F30A0009722B922AC204E3093
:1003C000A0009722B922AC204530A0009722B92284
:1003D000AC205330A0009722B922AC20AC20493089
:1003E000A0009722B922AC204E30A0009722B9225B
:1003F000AC20AC204130A0009722B922AC203A308A
:10040000A0009722B922AC200430A1000030E00007
:100410004518E00AC50CA10B082AC330E100502A98
:100420008230E100AC205A30A0009722B922AC20E3
:100430004530A0009722B922AC205230A00097226C
:10044000B922AC204F30A0009722B922AC20533003
:10045000A0009722B922AC20AC204930A0009722FE
:10046000B922AC204E30A0009722B922AC20AC209B
:100470004230A0009722B922AC203A30A000972247
:10048000B922AC200430A1000030E000461CE00A94
:10049000C60CA10B462AC330E1006008E200502AD6
:1004A000AC20E01B5F225822E00DDF0B502AE02A2F
:1004B0003030A0009722B9224410C40D080031301A
:1004C000A0009722B9224414C40D542A08008312B4
:1004D0003030A0008522A2223030A0008522AB223D
:1004E0003030A0008522B9220130A0008522B92237
:1004F0000630A0008522B9220E30A0008522B92244
:100500003830A0008522B92208008312003089000B
:100510002008713E83188D2A8F2AC030912A200826
:10052000880001308900B022003089000800831261
:10053000023089002008880003308900B022023090
:1005400089000800CD30A3002030A200A20BA62A0B
:10055000A30BA42A08002030A200A20BAD2A080099
:10056000FF30A300FA30A200A20BB42AA30BB22AD8
:1005700008000A30A4001930A300FA30A200A20B30
:10058000BF2AA30BBD2AA40BBB2A0800FF30B00072
:10059000FF30B100FF30B200B20BCC2AB10BCA2A37
:1005A000B00BC82A08009630B0009630B1009630E3
:1005B000B200B20BD92AB10BD72AB00BD52A08004A
:00000001FF
